{
  "contractName": "Adoption",
  "abi": [
    {
      "constant": true,
      "inputs": [
        {
          "name": "",
          "type": "uint256"
        },
        {
          "name": "",
          "type": "uint256"
        }
      ],
      "name": "counters",
      "outputs": [
        {
          "name": "",
          "type": "uint256"
        }
      ],
      "payable": false,
      "stateMutability": "view",
      "type": "function"
    },
    {
      "constant": true,
      "inputs": [
        {
          "name": "",
          "type": "uint256"
        },
        {
          "name": "",
          "type": "uint256"
        }
      ],
      "name": "adopters",
      "outputs": [
        {
          "name": "",
          "type": "address"
        }
      ],
      "payable": false,
      "stateMutability": "view",
      "type": "function"
    },
    {
      "anonymous": false,
      "inputs": [
        {
          "indexed": true,
          "name": "_from",
          "type": "address"
        },
        {
          "indexed": true,
          "name": "_id",
          "type": "uint256"
        },
        {
          "indexed": true,
          "name": "logged_addr",
          "type": "address"
        }
      ],
      "name": "Adopt",
      "type": "event"
    },
    {
      "constant": false,
      "inputs": [
        {
          "name": "petId",
          "type": "uint256"
        }
      ],
      "name": "adopt",
      "outputs": [
        {
          "name": "",
          "type": "uint256"
        }
      ],
      "payable": false,
      "stateMutability": "nonpayable",
      "type": "function"
    },
    {
      "constant": false,
      "inputs": [
        {
          "name": "petId",
          "type": "uint256"
        }
      ],
      "name": "giveback",
      "outputs": [
        {
          "name": "",
          "type": "uint256"
        }
      ],
      "payable": false,
      "stateMutability": "nonpayable",
      "type": "function"
    },
    {
      "constant": true,
      "inputs": [],
      "name": "getAdopters",
      "outputs": [
        {
          "name": "",
          "type": "address[][16]"
        }
      ],
      "payable": false,
      "stateMutability": "view",
      "type": "function"
    },
    {
      "constant": true,
      "inputs": [],
      "name": "getCounters",
      "outputs": [
        {
          "name": "",
          "type": "uint256[2][16]"
        }
      ],
      "payable": false,
      "stateMutability": "view",
      "type": "function"
    }
  ],
  "bytecode": "0x6080604052610200604051908101604052806040805190810160405280600960ff168152602001600060ff1681525081526020016040805190810160405280600560ff168152602001600060ff1681525081526020016040805190810160405280600260ff168152602001600060ff1681525081526020016040805190810160405280600460ff168152602001600060ff1681525081526020016040805190810160405280600460ff168152602001600060ff1681525081526020016040805190810160405280600260ff168152602001600060ff1681525081526020016040805190810160405280600560ff168152602001600060ff1681525081526020016040805190810160405280600960ff168152602001600060ff1681525081526020016040805190810160405280600960ff168152602001600060ff1681525081526020016040805190810160405280600560ff168152602001600060ff1681525081526020016040805190810160405280600260ff168152602001600060ff1681525081526020016040805190810160405280600460ff168152602001600060ff1681525081526020016040805190810160405280600460ff168152602001600060ff1681525081526020016040805190810160405280600260ff168152602001600060ff1681525081526020016040805190810160405280600560ff168152602001600060ff1681525081526020016040805190810160405280600960ff168152602001600060ff1681525081525060109060106200024192919062000256565b503480156200024f57600080fd5b506200035f565b82601060020281019282156200029b579160200282015b828111156200029a5782518290600262000289929190620002ae565b50916020019190600201906200026d565b5b509050620002aa9190620002f8565b5090565b8260028101928215620002e5579160200282015b82811115620002e4578251829060ff16905591602001919060010190620002c2565b5b509050620002f4919062000329565b5090565b6200032691905b8082111562000322576000818162000318919062000351565b50600201620002ff565b5090565b90565b6200034e91905b808211156200034a57600081600090555060010162000330565b5090565b90565b506000815560010160009055565b610aa3806200036f6000396000f3fe608060405260043610610078576000357c0100000000000000000000000000000000000000000000000000000000900463ffffffff1680633de4eb171461007d5780634212be18146100a85780635dfe52e7146100e55780636abb871f146101225780638588b2c51461014d578063c5116c811461018a575b600080fd5b34801561008957600080fd5b506100926101c7565b60405161009f919061093f565b60405180910390f35b3480156100b457600080fd5b506100cf60048036036100ca919081019061074b565b610290565b6040516100dc919061097d565b60405180910390f35b3480156100f157600080fd5b5061010c60048036036101079190810190610774565b61045d565b604051610119919061097d565b60405180910390f35b34801561012e57600080fd5b50610137610489565b6040516101449190610961565b60405180910390f35b34801561015957600080fd5b50610174600480360361016f919081019061074b565b61050b565b604051610181919061097d565b60405180910390f35b34801561019657600080fd5b506101b160048036036101ac9190810190610774565b61066e565b6040516101be9190610924565b60405180910390f35b6101cf6106bd565b6000601080602002604051908101604052809291906000905b828210156102875783820180548060200260200160405190810160405280929190818152602001828054801561027357602002820191906000526020600020905b8160009054906101000a900473ffffffffffffffffffffffffffffffffffffffff1673ffffffffffffffffffffffffffffffffffffffff1681526020019060010190808311610229575b5050505050815260200190600101906101e8565b50505050905090565b60008082101580156102a35750600f8211155b15156102ae57600080fd5b600080905060008090505b6000846010811015156102c857fe5b01805490508110156103af573373ffffffffffffffffffffffffffffffffffffffff166000856010811015156102fa57fe5b018281548110151561030857fe5b9060005260206000200160009054906101000a900473ffffffffffffffffffffffffffffffffffffffff1673ffffffffffffffffffffffffffffffffffffffff1614156103a25760008460108110151561035e57fe5b018181548110151561036c57fe5b9060005260206000200160006101000a81549073ffffffffffffffffffffffffffffffffffffffff0219169055600191506103af565b80806001019150506102b9565b508015156103bc57600080fd5b60016010846010811015156103cd57fe5b6002020160006002811015156103df57fe5b0154016010846010811015156103f157fe5b60020201600060028110151561040357fe5b0181905550600160108460108110151561041957fe5b60020201600160028110151561042b57fe5b01540360108460108110151561043d57fe5b60020201600160028110151561044f57fe5b018190555082915050919050565b60108260108110151561046c57fe5b600202018160028110151561047d57fe5b01600091509150505481565b6104916106e6565b60108080602002604051908101604052809291906000905b82821015610502578382600202016002806020026040519081016040528092919082600280156104ee576020028201915b8154815260200190600101908083116104da575b5050505050815260200190600101906104a9565b50505050905090565b600080821015801561051e5750600f8211155b151561052957600080fd5b600060108360108110151561053a57fe5b60020201600060028110151561054c57fe5b015411151561055a57600080fd5b60008260108110151561056957fe5b013390806001815401808255809150509060018203906000526020600020016000909192909190916101000a81548173ffffffffffffffffffffffffffffffffffffffff021916908373ffffffffffffffffffffffffffffffffffffffff1602179055505060016010836010811015156105df57fe5b6002020160006002811015156105f157fe5b01540360108360108110151561060357fe5b60020201600060028110151561061557fe5b0181905550600160108360108110151561062b57fe5b60020201600160028110151561063d57fe5b01540160108360108110151561064f57fe5b60020201600160028110151561066157fe5b0181905550819050919050565b60008260108110151561067d57fe5b018181548110151561068b57fe5b906000526020600020016000915091509054906101000a900473ffffffffffffffffffffffffffffffffffffffff1681565b610200604051908101604052806010905b60608152602001906001900390816106ce5790505090565b610400604051908101604052806010905b6106ff610715565b8152602001906001900390816106f75790505090565b6040805190810160405280600290602082028038833980820191505090505090565b60006107438235610a5f565b905092915050565b60006020828403121561075d57600080fd5b600061076b84828501610737565b91505092915050565b6000806040838503121561078757600080fd5b600061079585828601610737565b92505060206107a685828601610737565b9150509250929050565b6107b981610a23565b82525050565b60006107ca826109c3565b8084526020840193506107dc83610998565b60005b8281101561080e576107f28683516107b0565b6107fb826109ef565b91506020860195506001810190506107df565b50849250505092915050565b6000610825826109ce565b83602082028501610835856109a5565b60005b8481101561086e5783830388526108508383516107bf565b925061085b826109fc565b9150602088019750600181019050610838565b508196508694505050505092915050565b610888816109d9565b610891826109af565b60005b828110156108c3576108a78583516108ca565b6108b082610a09565b9150604085019450600181019050610894565b5050505050565b6108d3816109e4565b6108dc826109b9565b60005b8281101561090e576108f2858351610915565b6108fb82610a16565b91506020850194506001810190506108df565b5050505050565b61091e81610a55565b82525050565b600060208201905061093960008301846107b0565b92915050565b60006020820190508181036000830152610959818461081a565b905092915050565b600061040082019050610977600083018461087f565b92915050565b60006020820190506109926000830184610915565b92915050565b6000602082019050919050565b6000819050919050565b6000819050919050565b6000819050919050565b600081519050919050565b600060109050919050565b600060109050919050565b600060029050919050565b6000602082019050919050565b6000602082019050919050565b6000602082019050919050565b6000602082019050919050565b6000610a2e82610a35565b9050919050565b600073ffffffffffffffffffffffffffffffffffffffff82169050919050565b6000819050919050565b600081905091905056fea265627a7a723058209938d8881e95b24a5a19c7e815532eb2384a7d81489ff4969456f1ddaa437b796c6578706572696d656e74616cf50037",
  "source": "pragma solidity ^0.5.0;\npragma experimental ABIEncoderV2;\n\ncontract Adoption {\n    event Adopt (\n        address indexed _from,\n        uint indexed _id,\n        address indexed logged_addr\n    );\n    address[][16] public adopters;  // address of users\n    uint[2][16] public counters = [[9,0], [5,0], [2,0], [4,0], [4,0], [2,0], [5,0], [9,0], [9,0], [5,0], [2,0], [4,0], [4,0], [2,0], [5,0], [9,0]]; // number of books\n\n    // borrow books\n    function adopt(uint petId) public returns (uint) {\n        require(petId >= 0 && petId <= 15);  // ensure id does NOT exceed boundary\n        require(counters[petId][0] > 0); // ensure more than 1 book is left\n        adopters[petId].push(msg.sender);        // save address of those borrowing books\n        counters[petId][0] = counters[petId][0]-1;  \n        counters[petId][1] = counters[petId][1]+1; // update counters\n        return petId;\n    }\n\n    // return borrowed books\n    function giveback(uint petId) public returns (uint) {\n        \n        //emit Adopt(msg.sender, petId, adopters[petId]);\n\n        require(petId >= 0 && petId <= 15);  // ensure id does NOT exceed boundary\n        bool _match = false;\n        for(uint i = 0; i < adopters[petId].length; i++) {\n            if(adopters[petId][i] == msg.sender) {\n                delete adopters[petId][i];\n                _match = true;\n                break;\n            }\n        }\n        require(_match); // only the user who borrowed this book and return it\n        \n        // clear record \n        //adopters[petId] = address(0x0000000000000000000000000000000000000000); \n        counters[petId][0] = counters[petId][0] + 1;  \n        counters[petId][1] = counters[petId][1] - 1; // update counters\n        return petId;\n    }\n\n    // 返回领养者\n    function getAdopters() public view returns (address[][16] memory) {\n        return adopters;\n    }\n\n    // get counters\n    function getCounters() public view returns (uint[2][16] memory) {\n        return counters;\n    }\n}",
  "sourcePath": "/Users/mxzhang/Documents/CSCI5590-Advance Topics in Blockchain/project/CSCI5590-Project/contracts/Adoption.sol",
  "compiler": {
    "name": "solc",
    "version": "0.5.0+commit.1d4f565a.Emscripten.clang"
  },
  "schemaVersion": "3.0.2",
  "updatedAt": "2019-03-04T18:47:56.634Z",
  "devdoc": {
    "methods": {}
  },
  "userdoc": {
    "methods": {}
  }
}