{
  "contractName": "Library",
  "abi": [
    {
      "constant": true,
      "inputs": [
        {
          "name": "",
          "type": "uint256"
        },
        {
          "name": "",
          "type": "uint256"
        }
      ],
      "name": "counters",
      "outputs": [
        {
          "name": "",
          "type": "uint256"
        }
      ],
      "payable": false,
      "stateMutability": "view",
      "type": "function",
      "signature": "0x5dfe52e7"
    },
    {
      "constant": true,
      "inputs": [
        {
          "name": "",
          "type": "uint256"
        },
        {
          "name": "",
          "type": "uint256"
        }
      ],
      "name": "users",
      "outputs": [
        {
          "name": "",
          "type": "address"
        }
      ],
      "payable": false,
      "stateMutability": "view",
      "type": "function",
      "signature": "0xcd600ba9"
    },
    {
      "anonymous": false,
      "inputs": [
        {
          "indexed": true,
          "name": "_from",
          "type": "address"
        },
        {
          "indexed": true,
          "name": "_id",
          "type": "uint256"
        },
        {
          "indexed": true,
          "name": "logged_addr",
          "type": "address"
        }
      ],
      "name": "_library",
      "type": "event",
      "signature": "0xdb61936d91f5528e2a082416fed42680324906ef05f96a983c579e5c571c63ba"
    },
    {
      "constant": false,
      "inputs": [
        {
          "name": "bookId",
          "type": "uint256"
        }
      ],
      "name": "borrow",
      "outputs": [
        {
          "name": "",
          "type": "uint256"
        }
      ],
      "payable": false,
      "stateMutability": "nonpayable",
      "type": "function",
      "signature": "0xc5ebeaec"
    },
    {
      "constant": false,
      "inputs": [
        {
          "name": "bookId",
          "type": "uint256"
        }
      ],
      "name": "giveback",
      "outputs": [
        {
          "name": "",
          "type": "uint256"
        }
      ],
      "payable": false,
      "stateMutability": "nonpayable",
      "type": "function",
      "signature": "0x4212be18"
    },
    {
      "constant": true,
      "inputs": [],
      "name": "getUsers",
      "outputs": [
        {
          "name": "",
          "type": "address[][16]"
        }
      ],
      "payable": false,
      "stateMutability": "view",
      "type": "function",
      "signature": "0x00ce8e3e"
    },
    {
      "constant": true,
      "inputs": [],
      "name": "getCounters",
      "outputs": [
        {
          "name": "",
          "type": "uint256[2][16]"
        }
      ],
      "payable": false,
      "stateMutability": "view",
      "type": "function",
      "signature": "0x6abb871f"
    }
  ],
  "bytecode": "0x6080604052610200604051908101604052806040805190810160405280600960ff168152602001600060ff1681525081526020016040805190810160405280600560ff168152602001600060ff1681525081526020016040805190810160405280600260ff168152602001600060ff1681525081526020016040805190810160405280600460ff168152602001600060ff1681525081526020016040805190810160405280600460ff168152602001600060ff1681525081526020016040805190810160405280600260ff168152602001600060ff1681525081526020016040805190810160405280600560ff168152602001600060ff1681525081526020016040805190810160405280600960ff168152602001600060ff1681525081526020016040805190810160405280600960ff168152602001600060ff1681525081526020016040805190810160405280600560ff168152602001600060ff1681525081526020016040805190810160405280600260ff168152602001600060ff1681525081526020016040805190810160405280600460ff168152602001600060ff1681525081526020016040805190810160405280600460ff168152602001600060ff1681525081526020016040805190810160405280600260ff168152602001600060ff1681525081526020016040805190810160405280600560ff168152602001600060ff1681525081526020016040805190810160405280600960ff168152602001600060ff1681525081525060109060106200024192919062000256565b503480156200024f57600080fd5b506200035f565b82601060020281019282156200029b579160200282015b828111156200029a5782518290600262000289929190620002ae565b50916020019190600201906200026d565b5b509050620002aa9190620002f8565b5090565b8260028101928215620002e5579160200282015b82811115620002e4578251829060ff16905591602001919060010190620002c2565b5b509050620002f4919062000329565b5090565b6200032691905b8082111562000322576000818162000318919062000351565b50600201620002ff565b5090565b90565b6200034e91905b808211156200034a57600081600090555060010162000330565b5090565b90565b506000815560010160009055565b610aa2806200036f6000396000f3fe608060405260043610610077576000357c0100000000000000000000000000000000000000000000000000000000900463ffffffff168062ce8e3e1461007c5780634212be18146100a75780635dfe52e7146100e45780636abb871f14610121578063c5ebeaec1461014c578063cd600ba914610189575b600080fd5b34801561008857600080fd5b506100916101c6565b60405161009e919061093e565b60405180910390f35b3480156100b357600080fd5b506100ce60048036036100c9919081019061074a565b61028f565b6040516100db919061097c565b60405180910390f35b3480156100f057600080fd5b5061010b60048036036101069190810190610773565b61045c565b604051610118919061097c565b60405180910390f35b34801561012d57600080fd5b50610136610488565b6040516101439190610960565b60405180910390f35b34801561015857600080fd5b50610173600480360361016e919081019061074a565b61050a565b604051610180919061097c565b60405180910390f35b34801561019557600080fd5b506101b060048036036101ab9190810190610773565b61066d565b6040516101bd9190610923565b60405180910390f35b6101ce6106bc565b6000601080602002604051908101604052809291906000905b828210156102865783820180548060200260200160405190810160405280929190818152602001828054801561027257602002820191906000526020600020905b8160009054906101000a900473ffffffffffffffffffffffffffffffffffffffff1673ffffffffffffffffffffffffffffffffffffffff1681526020019060010190808311610228575b5050505050815260200190600101906101e7565b50505050905090565b60008082101580156102a25750600f8211155b15156102ad57600080fd5b600080905060008090505b6000846010811015156102c757fe5b01805490508110156103ae573373ffffffffffffffffffffffffffffffffffffffff166000856010811015156102f957fe5b018281548110151561030757fe5b9060005260206000200160009054906101000a900473ffffffffffffffffffffffffffffffffffffffff1673ffffffffffffffffffffffffffffffffffffffff1614156103a15760008460108110151561035d57fe5b018181548110151561036b57fe5b9060005260206000200160006101000a81549073ffffffffffffffffffffffffffffffffffffffff0219169055600191506103ae565b80806001019150506102b8565b508015156103bb57600080fd5b60016010846010811015156103cc57fe5b6002020160006002811015156103de57fe5b0154016010846010811015156103f057fe5b60020201600060028110151561040257fe5b0181905550600160108460108110151561041857fe5b60020201600160028110151561042a57fe5b01540360108460108110151561043c57fe5b60020201600160028110151561044e57fe5b018190555082915050919050565b60108260108110151561046b57fe5b600202018160028110151561047c57fe5b01600091509150505481565b6104906106e5565b60108080602002604051908101604052809291906000905b82821015610501578382600202016002806020026040519081016040528092919082600280156104ed576020028201915b8154815260200190600101908083116104d9575b5050505050815260200190600101906104a8565b50505050905090565b600080821015801561051d5750600f8211155b151561052857600080fd5b600060108360108110151561053957fe5b60020201600060028110151561054b57fe5b015411151561055957600080fd5b60008260108110151561056857fe5b013390806001815401808255809150509060018203906000526020600020016000909192909190916101000a81548173ffffffffffffffffffffffffffffffffffffffff021916908373ffffffffffffffffffffffffffffffffffffffff1602179055505060016010836010811015156105de57fe5b6002020160006002811015156105f057fe5b01540360108360108110151561060257fe5b60020201600060028110151561061457fe5b0181905550600160108360108110151561062a57fe5b60020201600160028110151561063c57fe5b01540160108360108110151561064e57fe5b60020201600160028110151561066057fe5b0181905550819050919050565b60008260108110151561067c57fe5b018181548110151561068a57fe5b906000526020600020016000915091509054906101000a900473ffffffffffffffffffffffffffffffffffffffff1681565b610200604051908101604052806010905b60608152602001906001900390816106cd5790505090565b610400604051908101604052806010905b6106fe610714565b8152602001906001900390816106f65790505090565b6040805190810160405280600290602082028038833980820191505090505090565b60006107428235610a5e565b905092915050565b60006020828403121561075c57600080fd5b600061076a84828501610736565b91505092915050565b6000806040838503121561078657600080fd5b600061079485828601610736565b92505060206107a585828601610736565b9150509250929050565b6107b881610a22565b82525050565b60006107c9826109c2565b8084526020840193506107db83610997565b60005b8281101561080d576107f18683516107af565b6107fa826109ee565b91506020860195506001810190506107de565b50849250505092915050565b6000610824826109cd565b83602082028501610834856109a4565b60005b8481101561086d57838303885261084f8383516107be565b925061085a826109fb565b9150602088019750600181019050610837565b508196508694505050505092915050565b610887816109d8565b610890826109ae565b60005b828110156108c2576108a68583516108c9565b6108af82610a08565b9150604085019450600181019050610893565b5050505050565b6108d2816109e3565b6108db826109b8565b60005b8281101561090d576108f1858351610914565b6108fa82610a15565b91506020850194506001810190506108de565b5050505050565b61091d81610a54565b82525050565b600060208201905061093860008301846107af565b92915050565b600060208201905081810360008301526109588184610819565b905092915050565b600061040082019050610976600083018461087e565b92915050565b60006020820190506109916000830184610914565b92915050565b6000602082019050919050565b6000819050919050565b6000819050919050565b6000819050919050565b600081519050919050565b600060109050919050565b600060109050919050565b600060029050919050565b6000602082019050919050565b6000602082019050919050565b6000602082019050919050565b6000602082019050919050565b6000610a2d82610a34565b9050919050565b600073ffffffffffffffffffffffffffffffffffffffff82169050919050565b6000819050919050565b600081905091905056fea265627a7a72305820d065e1c10dbee9a498b6eb24c8b91d1a7a3265d93abd3d23a71b7c47f22393d66c6578706572696d656e74616cf50037",
  "source": "pragma solidity ^0.5.0;\npragma experimental ABIEncoderV2;\n\ncontract Library {\n    event _library (\n        address indexed _from,\n        uint indexed _id,\n        address indexed logged_addr\n    );\n    address[][16] public users;  // address of users\n    uint[2][16] public counters = [[9,0], [5,0], [2,0], [4,0], [4,0], [2,0], [5,0], [9,0], [9,0], [5,0], [2,0], [4,0], [4,0], [2,0], [5,0], [9,0]]; // number of books\n\n    // borrow books\n    function borrow(uint bookId) public returns (uint) {\n        require(bookId >= 0 && bookId <= 15);  // ensure id does NOT exceed boundary\n        require(counters[bookId][0] > 0); // ensure more than 1 book is left\n        users[bookId].push(msg.sender);        // save address of those borrowing books\n        counters[bookId][0] = counters[bookId][0]-1;  \n        counters[bookId][1] = counters[bookId][1]+1; // update counters\n        return bookId;\n    }\n\n    // return borrowed books\n    function giveback(uint bookId) public returns (uint) {     \n        //emit _library(msg.sender, bookId, users[bookId]);\n        require(bookId >= 0 && bookId <= 15);  // ensure id does NOT exceed boundary\n        bool _match = false;\n        for(uint i = 0; i < users[bookId].length; i++) {\n            if(users[bookId][i] == msg.sender) {\n                delete users[bookId][i];\n                _match = true;\n                break;\n            }\n        }\n        require(_match); // only the user who borrowed this book can return it\n         \n        counters[bookId][0] = counters[bookId][0] + 1;  \n        counters[bookId][1] = counters[bookId][1] - 1; // update counters\n        return bookId;\n    }\n\n    // return users\n    function getUsers() public view returns (address[][16] memory) {\n        return users;\n    }\n\n    // get counters\n    function getCounters() public view returns (uint[2][16] memory) {\n        return counters;\n    }\n}\n",
  "sourcePath": "/Users/mxzhang/Documents/CSCI5590-Advance Topics in Blockchain/project/CSCI5590-Project/contracts/Library.sol",
  "compiler": {
    "name": "solc",
    "version": "0.5.0+commit.1d4f565a.Emscripten.clang"
  },
  "schemaVersion": "3.0.2",
  "updatedAt": "2019-03-04T20:01:51.623Z",
  "devdoc": {
    "methods": {}
  },
  "userdoc": {
    "methods": {}
  }
}