{
  "contractName": "Return",
  "abi": [
    {
      "constant": true,
      "inputs": [
        {
          "name": "",
          "type": "uint256"
        }
      ],
      "name": "users",
      "outputs": [
        {
          "name": "",
          "type": "address"
        }
      ],
      "payable": false,
      "stateMutability": "view",
      "type": "function"
    },
    {
      "constant": false,
      "inputs": [
        {
          "name": "bookId",
          "type": "uint256"
        }
      ],
      "name": "giveback",
      "outputs": [
        {
          "name": "",
          "type": "uint256"
        }
      ],
      "payable": false,
      "stateMutability": "nonpayable",
      "type": "function"
    },
    {
      "constant": true,
      "inputs": [],
      "name": "getUsers",
      "outputs": [
        {
          "name": "",
          "type": "address[16]"
        }
      ],
      "payable": false,
      "stateMutability": "view",
      "type": "function"
    }
  ],
  "bytecode": "0x608060405234801561001057600080fd5b5061035d806100206000396000f3fe608060405260043610610056576000357c0100000000000000000000000000000000000000000000000000000000900463ffffffff168062ce8e3e1461005b578063365b98b2146100ae5780634212be1814610129575b600080fd5b34801561006757600080fd5b50610070610178565b6040518082601060200280838360005b8381101561009b578082015181840152602081019050610080565b5050505090500191505060405180910390f35b3480156100ba57600080fd5b506100e7600480360360208110156100d157600080fd5b81019080803590602001909291905050506101f9565b604051808273ffffffffffffffffffffffffffffffffffffffff1673ffffffffffffffffffffffffffffffffffffffff16815260200191505060405180910390f35b34801561013557600080fd5b506101626004803603602081101561014c57600080fd5b810190808035906020019092919050505061022e565b6040518082815260200191505060405180910390f35b61018061030d565b60006010806020026040519081016040528092919082601080156101ef576020028201915b8160009054906101000a900473ffffffffffffffffffffffffffffffffffffffff1673ffffffffffffffffffffffffffffffffffffffff16815260200190600101908083116101a5575b5050505050905090565b60008160108110151561020857fe5b016000915054906101000a900473ffffffffffffffffffffffffffffffffffffffff1681565b60008082101580156102415750600f8211155b151561024c57600080fd5b3373ffffffffffffffffffffffffffffffffffffffff1660008360108110151561027257fe5b0160009054906101000a900473ffffffffffffffffffffffffffffffffffffffff1673ffffffffffffffffffffffffffffffffffffffff161415156102b657600080fd5b600080836010811015156102c657fe5b0160006101000a81548173ffffffffffffffffffffffffffffffffffffffff021916908373ffffffffffffffffffffffffffffffffffffffff160217905550819050919050565b6102006040519081016040528060109060208202803883398082019150509050509056fea165627a7a723058200ca12b6373609dacaefe8415cd08d00075a11893b18c3af176af7c0e3cad5a040029",
  "source": "pragma solidity ^0.5.0;\n\ncontract Return {\n     address[16] public users;  // addresses of users who borrowed books\n    // return borrowed books\n    function giveback(uint bookId) public returns (uint) {\n        require(bookId >= 0 && bookId <= 15);  // ensure id does NOT exceed boundary\n        require(users[bookId] == msg.sender); // only the user who borrowed this book and return it\n        \n        // clear record \n        users[bookId] = address(0x0000000000000000000000000000000000000000); \n        return bookId;\n    }\n    // return user list\n    function getUsers() public view returns (address[16] memory) {\n        return users;\n    }\n\n}",
  "sourcePath": "/Users/mxzhang/Documents/CSCI5590-Advance Topics in Blockchain/project/CSCI5590-Project/contracts/Return.sol",
  "compiler": {
    "name": "solc",
    "version": "0.5.0+commit.1d4f565a.Emscripten.clang"
  },
  "schemaVersion": "3.0.2",
  "updatedAt": "2019-03-04T18:47:56.637Z",
  "devdoc": {
    "methods": {}
  },
  "userdoc": {
    "methods": {}
  }
}